:020000040000FA
:020000003A299B
:040002000034003492
:1000A00082073F3406345B344F3466346D347D341C
:1000B00007347F346F3477347C3439345E347934A8
:1000C000713482073034313432343334343435349B
:1000D0003634373438343934613462346334643418
:1000E00065346634A2000F395020B000220E0F395B
:1000F0005020AF000800A2000F396120B000220E8E
:100100000F396120AF000800283084008001840A84
:1001100004083C3A031D8628080004302721A70163
:100120004030BE200000C030BE2000009B200000F8
:100130008830BE2008001430A700C0308510CD20C4
:100140000301CD20A703031DA028851408007220F9
:1001500084202F08B2003008B4000E30A700C03051
:10016000BE2008002E08C0388510CD202808CD20DC
:10017000AE0A2908CD20AE0A851408008510CD20CE
:1001800028308400030127040319CB280008CD2060
:10019000840AA703C22885140800AC000830AD000B
:1001A000AC0C03180514851285160510AD0BD0286C
:1001B0000800AC000830AD000310E520AC0CE520D1
:1001C000AD0BDE280314E52008002130A20003183F
:1001D0000515031C0511A20BEB28080005160000ED
:1001E000851DEF2803300512053027210800313026
:1001F00084008001840A0408513A031DF92808008C
:10020000F72005160A30A70031308400851D062925
:100210000512A001A201851D1129A00A03191729A1
:10022000092985191729A20A031917291129200854
:100230008000840A22088000840AA70303190800AA
:10024000A20803190800A008031908000929A3003F
:100250002C21A30B282908001B30A400E730A5009F
:1002600000000000000000000000A50B3029A40BD6
:100270002E2908008316FF23900083128501073082
:1002800099008316C83085008312851405108516E1
:100290000515A0010D30D9200A30D92000214330A6
:1002A000D92027080A3CA70071210D30D9200A3037
:1002B000D920313084004830D92000087121840AC7
:1002C0002030D9204C30D92000087121840A0D300B
:1002D000D9200A30D920A703031D5B292830272104
:0E02E0004A297B202F08D9203008D920080099
:0207FE00303495
:02400E00D43F9D
:00000001FF
