:100000008316FF23900083018A2A0A2B0B2B0C2BCB
:100010000D2B0E2B0F2B102B112B122B132B142B04
:0A002000152B162B172B182B192B8C
:10051400B801B90183016B2B8312A2008510B122AB
:1005240085140800850107309900C83083168500BA
:100534008312851405108516051508000E308312E4
:10054400A20040308510B122C030B122A2080319A4
:10055400AF2A0030B122A203A82A8514080083120E
:10056400A0000830A100A10803190800201CBC2A1F
:100574000514BD2A05108512851605100310A00C5C
:10058400A103B52A0230A5000430A400BA30A300A8
:10059400A30BCA2AA40BCA2AA50BCA2A640040309A
:1005A4008E220000C0308E220000A02288308E2AC5
:1005B4000230A000003085190130A10000308519F7
:1005C400013021060319EB2A003085190130A100FE
:1005D400EC2AA003A008031DE02A21080800A400B7
:1005E4008510C038B12222080319062BA30323085F
:1005F400FF3A0319062B2208840083130008B12252
:100604000030A20AB122F82A85140800A0001A2B8F
:100614003F3406345B344F3466346D347D340734F0
:100624007F346F3477347C3439345E3479347134C4
:1006340020088400103004020318080000308A00E7
:1006440005300407820008004623B900B908031DD9
:1006540000340530A2002730B423B900B908031DC3
:10066400003428092706031D432B2708823A031D5B
:10067400432B2A092906031D412B290808000730AA
:10068400442B0630B90000340516DA22003A031967
:10069400472B0512B801DA22013A031D532BB80A7D
:1006A4004D2BBE303802031C0134DD3038020318F0
:1006B4000134B801DA22003A031D622BB80A5C2B1C
:1006C4005A303802031C02347430380203180234DE
:1006D40000349422C422832B7330AF01B00018304D
:1006E400B100370E0F390823B20037080F39082339
:1006F400B300B401B5012F30A2000730A3000030CD
:10070400F1220330AE008A30AD005630AC00AC0BA1
:10071400892BAD0B892BAE0B892B902B8312B9013E
:100724008030AF002F30A2000030A301A30AF122D1
:100734002623B700B90803196E2B7930AF01B00036
:10074400B101390E0F390823B20039080F390823D3
:10075400B300380E0F390823B40038080F390823C2
:10076400B5007D2BA300B801A401A601A60AA5012A
:10077400B801DA22013A031DC12BB80ABB2B0A3097
:100784003802031C03340F30380203180334B80151
:10079400DA22003A031DD02BB80ACA2B0A303802D9
:1007A400031CDB2B0F3038020318DB2B2609A505AD
:1007B400E12B22303802031C04342608A504C93076
:1007C4003802031CE92B260B0534A4030034260845
:1007D400803A031DFC2BA601A60AA40A2308840060
:1007E400250883138000A30AA50124082202031C00
:0C07F4000034BA2B0310A60DBA2B3034D1
:02400E00D431AB
:00000001FF
